:0200000480007A
:100000006F00C0036FF0DFFF6FF09FFF6FF05FFFC7
:100010006FF01FFF6FF0DFFE6FF09FFE6FF05FFE6F
:100020006FF01FFE6FF0DFFD6FF09FFD6FF05FFD63
:0C0030006FF01FFD6FF0DFFC6FF09FFC15
:10003C00130101FF2326B1002324C1002322D10088
:10004C002320F1008325C5011386F5FFB705022097
:10005C0023A2C500FB6000000326C5011306F6FFB2
:10006C0023A4C5007B6100000326C5011306F6FF1F
:10007C0023A6C500FB6100000326C5011306F6FF8D
:10008C0023A8C5007B620000032605021306F6FFB9
:10009C0023AAC500FB620000032645011306F6FFE8
:1000AC0023A0C5087B600002032685011306F6FF1A
:1000BC0023A0C50A7B64000203A605089306C100B1
:1000CC007BC0C60203A6050A930681007BC4C60248
:1000DC0003A6C50093064100FBC1C6000326C5015B
:1000EC0003A7050113162600B386C6007BC2E600E3
:1000FC0083284500638A080E0327C50113060000F8
:10010C0013172700B386E600130745039307010076
:10011C00130800006F0080010323850093922200D6
:10012C003306C300B38757006370160D9388F8FF2E
:10013C00631416017BE2000083280700832217005A
:10014C007B8058808328270083223700FB805880CF
:10015C0083284700832257007B81588083286700BF
:10016C0083227700FB8158808328870083229700A5
:10017C007B8258808328A7008322B700FB8258809B
:10018C008328C7008322D7007B8358808328E7000D
:10019C008322F700FB8358807B10808CFB1031800E
:1001AC007B11028083A84501FB02180183A845013D
:1001BC00FBD21701832205027BE10100FB610200E7
:1001CC00832845001383F8FFE37866F483A80501C0
:1001DC007BC216010323C50183284500131323009A
:1001EC00B38666006FF05FF313050000FB60000040
:1001FC007B610000FB6100007B620000FB62000081
:08020C001301010167800000ED
:040000058000000077
:00000001FF
